:020000040800F2
:1000000078060020CD010008170400080F0400083E
:1000100013040008D90200088D0500080000000044
:100020000000000000000000000000003D04000887
:10003000DD0200080000000019040008290500087E
:10004000E7010008E7010008E7010008E7010008F0
:10005000E7010008E7010008E7010008E7010008E0
:10006000E7010008E7010008E7010008E7010008D0
:10007000E7010008E7010008E7010008E7010008C0
:10008000E7010008E7010008E7010008E7010008B0
:10009000E7010008E7010008E7010008E7010008A0
:1000A000E7010008E7010008E7010008E701000890
:1000B000E7010008E7010008E7010008E701000880
:1000C000E7010008E7010008E7010008E701000870
:1000D000E7010008E7010008E7010008E701000860
:1000E000E7010008E7010008E7010008E701000850
:1000F000E7010008E7010008E7010008E701000840
:10010000E7010008E7010008E7010008E70100082F
:10011000E7010008E7010008E7010008E70100081F
:10012000E7010008E7010008E7010008E70100080F
:1001300000F002F800F03AF80AA090E8000C8244BF
:100140008344AAF10107DA4501D100F02FF8AFF29C
:10015000090EBAE80F0013F0010F18BFFB1A43F0A5
:10016000010318477006000090060000103A24BFF3
:1001700078C878C1FAD8520724BF30C830C144BF0C
:1001800004680C607047000000230024002500264E
:10019000103A28BF78C1FBD8520728BF30C148BFEA
:1001A0000B6070471FB51FBD10B510BD00F031F8D2
:1001B0001146FFF7F7FF00F031FA00F04FF803B4F3
:1001C000FFF7F2FF03BC00F057F800000948804732
:1001D00009480047FEE7FEE7FEE7FEE7FEE7FEE729
:1001E000FEE7FEE7FEE7FEE704480549054A064B41
:1001F000704700002D05000831010008780000203C
:1002000078060020780200207802002070477047AE
:100210007047754600F02CF8AE4605006946534617
:1002200020F00700854618B020B5FFF7DDFFBDE8D8
:1002300020404FF000064FF000074FF000084FF04D
:10024000000B21F00701AC46ACE8C009ACE8C009DE
:10025000ACE8C009ACE8C0098D46704710B504464B
:10026000AFF300802046BDE81040FFF7A8BF0000B4
:10027000004870471400002001491820ABBEFEE77B
:10028000260002007047000010B50446012C0DD175
:100290004FF440710D4800F0B6F821020C4800F010
:1002A000B2F840210B4800F0AEF80DE04FF4407179
:1002B000064800F0AAF84FF48071054800F0A5F850
:1002C0004021044800F0A1F810BD0000000C0140DE
:1002D000000801400020014000BFFEE770472DE903
:1002E000F0410246002500260020002300240027BC
:1002F00091F803C00CF00F0591F803C00CF0100C3E
:10030000BCF1000F03D091F802C04CEA050591F84A
:1003100000C0BCF1000F31D0146800202BE04FF07A
:10032000010C0CFA00F3B1F800C00CEA03069E427F
:1003300020D183004FF00F0C0CFA03F7BC4305FAF1
:1003400003FC4CEA040491F803C0BCF1280F06D169
:100350004FF0010C0CFA00FCC2F814C00AE091F84E
:1003600003C0BCF1480F05D14FF0010C0CFA00FCA2
:10037000C2F810C0401C0828D1D31460B1F800C0E6
:10038000BCF1FF0F34DD546800202EE000F1080CB2
:100390004FF0010808FA0CF3B1F800C00CEA0306AC
:1003A0009E4221D183004FF00F0C0CFA03F7BC439F
:1003B00005FA03FC4CEA040491F803C0BCF1280FD1
:1003C00005D100F1080C08FA0CF8C2F8148091F875
:1003D00003C0BCF1480F07D100F1080C4FF0010831
:1003E00008FA0CF8C2F81080401C0828CED35460DC
:1003F000BDE8F0810246002093680B400BB101205C
:1004000000E000207047416170470161704700BF04
:10041000FEE700BFFEE770477047000029B1064ABB
:1004200092690243044B9A6104E0034A9269824351
:10043000014B9A617047000000100240704710B5F0
:1004400000F002F810BD00000CB5002001900090F3
:100450003348006840F480303149086000BF3048BC
:10046000006800F4003000900198401C0190009852
:1004700018B90198B0F5A06FF1D12948006800F4CF
:10048000003010B10120009001E0002000900098A1
:10049000012843D12348006840F01000214908603A
:1004A0000846006820F0030008600846006840F035
:1004B000020008601A4840681949486008464068C8
:1004C00048600846406840F48060486008464068DC
:1004D00020F47C1048600846406840F4E81048600A
:1004E0000846006840F08070086000BF0C48006853
:1004F00000F000700028F9D00948406820F003009F
:10050000074948600846406840F00200486000BF64
:100510000348406800F00C000828F9D10CBD000029
:1005200000100240002002407047000010B5134840
:10053000006840F001001149086008464068104911
:1005400008400E494860084600680E4908400B49BB
:1005500008600846006820F480200860084640686B
:1005600020F4FE0048604FF41F008860FFF767FF2B
:100570004FF000600449086010BD00000010024008
:100580000000FFF8FFFFF6FE08ED00E000BFFEE709
:1005900071B51F4800684FF47A73B0FBF3F2B2F103
:1005A000807F00D31DE022F07F40401E4FF0E0230B
:1005B000586158170F23002807DA1C07260E154C20
:1005C00000F00F052D1F665503E01C07250E124C89
:1005D000255400BF00204FF0E023986107201861E8
:1005E00000BF002108E000BF4FF0E020006900F4E8
:1005F00080300028F8D0491C00988142F3D34FF096
:10060000E020006920F001004FF0E022106178BD89
:100610000000002018ED00E000E400E008B5012132
:100620000420FFF7FBFE01210820FFF7F7FE012160
:100630004020FFF7F3FE01210802FFF7EFFE102034
:100640008DF8030003208DF8020040F20110ADF890
:10065000000069465B48FFF742FE4FF44070ADF87A
:10066000000069465848FFF73AFE3E20ADF800000A
:1006700069465648FFF733FE4020ADF80000694652
:100680005348FFF72CFE9BE002215048FFF7B2FED3
:10069000012825D122E00120FFF7F6FD4FF4FA7082
:1006A000FFF776FF0020FFF7EFFD4FF4FA70FFF73A
:1006B0006FFF04214548FFF79DFE70B108214348B4
:1006C000FFF798FE48B110214048FFF793FE20B194
:1006D00020213E48FFF78EFE00B900E0DBE76EE028
:1006E00004213A48FFF786FEA8B9002410E0402113
:1006F0003748FFF788FE4FF4FA70FFF749FF4021B3
:100700003348FFF782FE4FF4FA70FFF741FF641C95
:10071000012CECDD53E008212C48FFF76BFEA8B953
:10072000002410E080212A48FFF76DFE4FF4FA7094
:10073000FFF72EFF80212648FFF767FE4FF4FA707F
:10074000FFF726FF641C022CECDD38E010211F4867
:10075000FFF750FEB8B9002412E04FF480711C4836
:10076000FFF751FE4FF4FA70FFF712FF4FF480715C
:100770001748FFF74AFE4FF4FA70FFF709FF641CB1
:10078000032CEADD1BE020211048FFF733FEB0B94F
:10079000002412E04FF400710D48FFF734FE4FF4CF
:1007A000FA70FFF7F5FE4FF400710948FFF72DFED0
:1007B0004FF4FA70FFF7ECFE641C042CEADD00BF76
:1007C00062E7000000080140000C014000180140F1
:1007D00000200140F4070008000000201400000081
:1007E0006C010008080800081400002064060000DE
:1007F0008801000800A24A04000000000000000078
:080800000102030406070809C8
:04000005080001CD21
:00000001FF
