:020000040800F2
:1000000078060020CD010008B3030008AB03000808
:10001000AF0300088702000829050008000000005F
:10002000000000000000000000000000D9030008EC
:100030008B02000800000000B5030008C50400089A
:10004000E7010008E7010008E7010008E7010008F0
:10005000E7010008E7010008E7010008E7010008E0
:10006000E7010008E7010008E7010008E7010008D0
:10007000E7010008E7010008E7010008E7010008C0
:10008000E7010008E7010008E7010008E7010008B0
:10009000E7010008E7010008E7010008E7010008A0
:1000A000E7010008E7010008E7010008E701000890
:1000B000E7010008E7010008E7010008E701000880
:1000C000E7010008E7010008E7010008E701000870
:1000D000E7010008E7010008E7010008E701000860
:1000E000E7010008E7010008E7010008E701000850
:1000F000E7010008E7010008E7010008E701000840
:10010000E7010008E7010008E7010008E70100082F
:10011000E7010008E7010008E7010008E70100081F
:10012000E7010008E7010008E7010008E70100080F
:1001300000F002F800F03AF80AA090E8000C8244BF
:100140008344AAF10107DA4501D100F02FF8AFF29C
:10015000090EBAE80F0013F0010F18BFFB1A43F0A5
:1001600001031847CC040000EC040000103A24BF3F
:1001700078C878C1FAD8520724BF30C830C144BF0C
:1001800004680C607047000000230024002500264E
:10019000103A28BF78C1FBD8520728BF30C148BFEA
:1001A0000B6070471FB51FBD10B510BD00F031F8D2
:1001B0001146FFF7F7FF00F0FFF900F04FF803B426
:1001C000FFF7F2FF03BC00F057F800000948804732
:1001D00009480047FEE7FEE7FEE7FEE7FEE7FEE729
:1001E000FEE7FEE7FEE7FEE704480549054A064B41
:1001F00070470000C90400083101000878000020A1
:1002000078060020780200207802002070477047AE
:100210007047754600F02CF8AE4605006946534617
:1002200020F00700854618B020B5FFF7DDFFBDE8D8
:1002300020404FF000064FF000074FF000084FF04D
:10024000000B21F00701AC46ACE8C009ACE8C009DE
:10025000ACE8C009ACE8C0098D46704710B504464B
:10026000AFF300802046BDE81040FFF7A8BF0000B4
:10027000004870471400002001491820ABBEFEE77B
:1002800026000200704700BFFEE770472DE9F041ED
:10029000024600250026002000230024002791F8B4
:1002A00003C00CF00F0591F803C00CF0100CBCF16A
:1002B000000F03D091F802C04CEA050591F800C088
:1002C000BCF1000F31D0146800202BE04FF0010C7E
:1002D0000CFA00F3B1F800C00CEA03069E4220D1EC
:1002E00083004FF00F0C0CFA03F7BC4305FA03FC34
:1002F0004CEA040491F803C0BCF1280F06D14FF07A
:10030000010C0CFA00FCC2F814C00AE091F803C01A
:10031000BCF1480F05D14FF0010C0CFA00FCC2F8FB
:1003200010C0401C0828D1D31460B1F800C0BCF143
:10033000FF0F34DD546800202EE000F1080C4FF070
:10034000010808FA0CF3B1F800C00CEA03069E425B
:1003500021D183004FF00F0C0CFA03F7BC4305FAD0
:1003600003FC4CEA040491F803C0BCF1280F05D14A
:1003700000F1080C08FA0CF8C2F8148091F803C0D8
:10038000BCF1480F07D100F1080C4FF0010808FA42
:100390000CF8C2F81080401C0828CED35460BDE889
:1003A000F081416170470161704700BFFEE700BF07
:1003B000FEE770477047000029B1064A9269024380
:1003C000044B9A6104E0034A92698243014B9A61AB
:1003D0007047000000100240704710B500F002F8AE
:1003E00010BD00000CB5002001900090334800685B
:1003F00040F480303149086000BF3048006800F4A4
:10040000003000900198401C0190009818B90198A4
:10041000B0F5A06FF1D12948006800F4003010B1A8
:100420000120009001E0002000900098012843D1B5
:100430002348006840F01000214908600846006821
:1004400020F0030008600846006840F002000860E1
:100450001A4840681949486008464068486008469C
:10046000406840F4806048600846406820F47C1092
:1004700048600846406840F4E81048600846006854
:1004800040F08070086000BF0C48006800F0007009
:100490000028F9D00948406820F003000749486067
:1004A0000846406840F00200486000BF03484068CA
:1004B00000F00C000828F9D10CBD0000001002402B
:1004C000002002407047000010B51348006840F05B
:1004D00001001149086008464068104908400E496B
:1004E0004860084600680E4908400B490860084605
:1004F000006820F4802008600846406820F4FE0070
:1005000048604FF41F008860FFF767FF4FF00060FE
:100510000449086010BD0000001002400000FFF810
:10052000FFFFF6FE08ED00E000BFFEE771B51F48D3
:1005300000684FF47A73B0FBF3F2B2F1807F00D31E
:100540001DE022F07F40401E4FF0E0235861581715
:100550000F23002807DA1C07260E154C00F00F05A4
:100560002D1F665503E01C07250E124C255400BFB5
:1005700000204FF0E02398610720186100BF0021A0
:1005800008E000BF4FF0E020006900F48030002850
:10059000F8D0491C00988142F3D34FF0E020006965
:1005A00020F001004FF0E022106178BD0000002033
:1005B00018ED00E000E400E008B501210802FFF7B3
:1005C000FBFE01210820FFF7F7FE4FF6FF70ADF8A4
:1005D000000010208DF8030003208DF8020069460A
:1005E0001148FFF753FE69461048FFF74FFE19E028
:1005F0004FF480710D48FFF7D6FE80210A48FFF7BF
:10060000D2FE4FF4FA70FFF791FF4FF48071074864
:10061000FFF7C7FE80210448FFF7C3FE4FF4FA70CE
:10062000FFF784FFE4E7000000200140000C0140D8
:100630005006000800000020140000006C010008B3
:100640006406000814000020640600008801000809
:1006500000A24A04000000000000000001020304A0
:040660000607080978
:04000005080001CD21
:00000001FF
